{
  "contractName": "Lottery",
  "abi": [
    {
      "inputs": [],
      "stateMutability": "nonpayable",
      "type": "constructor"
    },
    {
      "anonymous": false,
      "inputs": [
        {
          "indexed": false,
          "internalType": "address",
          "name": "winner",
          "type": "address"
        }
      ],
      "name": "eResult",
      "type": "event"
    },
    {
      "inputs": [],
      "name": "manager",
      "outputs": [
        {
          "internalType": "address",
          "name": "",
          "type": "address"
        }
      ],
      "stateMutability": "view",
      "type": "function"
    },
    {
      "inputs": [
        {
          "internalType": "uint256",
          "name": "",
          "type": "uint256"
        }
      ],
      "name": "participant",
      "outputs": [
        {
          "internalType": "address payable",
          "name": "",
          "type": "address"
        }
      ],
      "stateMutability": "view",
      "type": "function"
    },
    {
      "stateMutability": "payable",
      "type": "receive"
    },
    {
      "inputs": [],
      "name": "checkBalance",
      "outputs": [
        {
          "internalType": "uint256",
          "name": "",
          "type": "uint256"
        }
      ],
      "stateMutability": "view",
      "type": "function"
    },
    {
      "inputs": [],
      "name": "Random",
      "outputs": [
        {
          "internalType": "uint256",
          "name": "",
          "type": "uint256"
        }
      ],
      "stateMutability": "pure",
      "type": "function"
    },
    {
      "inputs": [],
      "name": "selectWinner",
      "outputs": [],
      "stateMutability": "nonpayable",
      "type": "function"
    }
  ],
  "bytecode": "0x608060405234801561001057600080fd5b50336000806101000a81548173ffffffffffffffffffffffffffffffffffffffff021916908373ffffffffffffffffffffffffffffffffffffffff1602179055506109b4806100606000396000f3fe60806040526004361061004e5760003560e01c806333a99e0414610107578063481c6a751461011e5780634b07954a14610149578063604a6fa914610186578063c71daccb146101b157610102565b3661010257670de0b6b3a764000034101561009e576040517f08c379a000000000000000000000000000000000000000000000000000000000815260040161009590610624565b60405180910390fd5b6001339080600181540180825580915050600190039060005260206000200160009091909190916101000a81548173ffffffffffffffffffffffffffffffffffffffff021916908373ffffffffffffffffffffffffffffffffffffffff1602179055005b600080fd5b34801561011357600080fd5b5061011c6101dc565b005b34801561012a57600080fd5b50610133610400565b6040516101409190610685565b60405180910390f35b34801561015557600080fd5b50610170600480360381019061016b91906106db565b610424565b60405161017d9190610729565b60405180910390f35b34801561019257600080fd5b5061019b610463565b6040516101a89190610753565b60405180910390f35b3480156101bd57600080fd5b506101c6610489565b6040516101d39190610753565b60405180910390f35b60008054906101000a900473ffffffffffffffffffffffffffffffffffffffff1673ffffffffffffffffffffffffffffffffffffffff163373ffffffffffffffffffffffffffffffffffffffff161461026a576040517f08c379a0000000000000000000000000000000000000000000000000000000008152600401610261906107ba565b60405180910390fd5b600360018054905010156102b3576040517f08c379a00000000000000000000000000000000000000000000000000000000081526004016102aa90610826565b60405180910390fd5b60006102bd610463565b9050600080600180549050836102d39190610875565b9050600181815481106102e9576102e86108a6565b5b9060005260206000200160009054906101000a900473ffffffffffffffffffffffffffffffffffffffff1691508173ffffffffffffffffffffffffffffffffffffffff166108fc610338610489565b9081150290604051600060405180830381858888f19350505050158015610363573d6000803e3d6000fd5b507f39a86d3002157aeb9d01fdd02b63a8cc93a68e3f10671abe3333b6a034253df7826040516103939190610934565b60405180910390a1600067ffffffffffffffff8111156103b6576103b561094f565b5b6040519080825280602002602001820160405280156103e45781602001602082028036833780820191505090505b50600190805190602001906103fa929190610520565b50505050565b60008054906101000a900473ffffffffffffffffffffffffffffffffffffffff1681565b6001818154811061043457600080fd5b906000526020600020016000915054906101000a900473ffffffffffffffffffffffffffffffffffffffff1681565b60006040516020016040516020818303038152906040528051906020012060001c905090565b60008060009054906101000a900473ffffffffffffffffffffffffffffffffffffffff1673ffffffffffffffffffffffffffffffffffffffff163373ffffffffffffffffffffffffffffffffffffffff161461051a576040517f08c379a0000000000000000000000000000000000000000000000000000000008152600401610511906107ba565b60405180910390fd5b47905090565b828054828255906000526020600020908101928215610599579160200282015b828111156105985782518260006101000a81548173ffffffffffffffffffffffffffffffffffffffff021916908373ffffffffffffffffffffffffffffffffffffffff16021790555091602001919060010190610540565b5b5090506105a691906105aa565b5090565b5b808211156105c35760008160009055506001016105ab565b5090565b600082825260208201905092915050565b7f52657175697265206174206c65617374206f6e65206574686572000000000000600082015250565b600061060e601a836105c7565b9150610619826105d8565b602082019050919050565b6000602082019050818103600083015261063d81610601565b9050919050565b600073ffffffffffffffffffffffffffffffffffffffff82169050919050565b600061066f82610644565b9050919050565b61067f81610664565b82525050565b600060208201905061069a6000830184610676565b92915050565b600080fd5b6000819050919050565b6106b8816106a5565b81146106c357600080fd5b50565b6000813590506106d5816106af565b92915050565b6000602082840312156106f1576106f06106a0565b5b60006106ff848285016106c6565b91505092915050565b600061071382610644565b9050919050565b61072381610708565b82525050565b600060208201905061073e600083018461071a565b92915050565b61074d816106a5565b82525050565b60006020820190506107686000830184610744565b92915050565b7f596f7520617265206e6f7420617574686f726973656400000000000000000000600082015250565b60006107a46016836105c7565b91506107af8261076e565b602082019050919050565b600060208201905081810360008301526107d381610797565b9050919050565b7f50617274696369706e74732073686f756c64206265206174206c656173742033600082015250565b60006108106020836105c7565b915061081b826107da565b602082019050919050565b6000602082019050818103600083015261083f81610803565b9050919050565b7f4e487b7100000000000000000000000000000000000000000000000000000000600052601260045260246000fd5b6000610880826106a5565b915061088b836106a5565b92508261089b5761089a610846565b5b828206905092915050565b7f4e487b7100000000000000000000000000000000000000000000000000000000600052603260045260246000fd5b6000819050919050565b60006108fa6108f56108f084610644565b6108d5565b610644565b9050919050565b600061090c826108df565b9050919050565b600061091e82610901565b9050919050565b61092e81610913565b82525050565b60006020820190506109496000830184610925565b92915050565b7f4e487b7100000000000000000000000000000000000000000000000000000000600052604160045260246000fdfea26469706673582212200aa58283e0531dc6dd1234fbd0b55883dd6e174f9abb1fb61b86dcfb0cd901ca64736f6c634300080f0033",
  "immutableReferences": {},
  "source": "// SPDX-License-Identifier: GPL-3.0\r\npragma solidity ^0.8.0;\r\ncontract Lottery{\r\n    address  public manager;\r\n    address payable[] public participant;\r\n    modifier mCheck{\r\n        require(msg.value>=1 ether,\"Require at least one ether\");\r\n        _;\r\n    }\r\n    modifier managerOnly{\r\n        require(msg.sender==manager,\"You are not authorised\");\r\n        _;\r\n    }\r\n    modifier participantsLength{\r\n        require(participant.length>=3,\"Participnts should be at least 3\");\r\n        _;\r\n    } \r\n    event eResult(address winner);\r\n    constructor() {\r\n        manager=msg.sender;\r\n    }\r\n  receive() external mCheck payable{\r\n       participant.push(payable(msg.sender));\r\n    }\r\n    function checkBalance() public view managerOnly returns(uint){\r\n        return address(this).balance;\r\n    }\r\n    function Random() public pure returns(uint){\r\n        return uint(keccak256(abi.encodePacked()));\r\n    }\r\n    function selectWinner() managerOnly participantsLength public {\r\n        uint r=Random();\r\n       address payable winner; \r\n       uint index=r%participant.length;\r\n        winner=participant[index];\r\n        winner.transfer(checkBalance());\r\n        emit eResult(winner);\r\n        participant=new address payable[](0);\r\n\r\n    }\r\n}",
  "sourcePath": "C:\\Users\\sony\\Desktop\\ETHereum\\contracts\\Lottery.sol",
  "compiler": {
    "name": "solc",
    "version": "0.8.15+commit.e14f2714.Emscripten.clang"
  },
  "schemaVersion": "3.4.8",
  "updatedAt": "2022-07-27T06:47:10.801Z",
  "devdoc": {
    "kind": "dev",
    "methods": {},
    "version": 1
  },
  "userdoc": {
    "kind": "user",
    "methods": {},
    "version": 1
  }
}